:0200000018C026
:10000200FECFFDCFFCCFFBCFFACFF9CFF8CFF7CFA2
:10001200F6CFF5CF70C0F3CFF2CFF1CFF0CFEFCF65
:10002200EECFEDCF00000000040004002600000027
:10003200F894EE27ECBBF1E0FBBFEBBFE5BF8DE030
:10004200A2E0BB27ED938A95E9F780E094E0A0E671
:10005200ED930197E9F7EAE2F0E085919591009737
:1000620061F0A591B59105901590BF01F001059041
:100072000D920197E1F7FB01F0CFEFE5EDBFE4E070
:10008200EEBFC0E6D1E000C0A0D0BDD0EF3F19F472
:100092009CD0E0E0C4D011D0EFEFE7BBE4BBEEE0D0
:1000A200E1BBE2B3E06FE2BBE8E9EAB9E6E8E0BD52
:1000B200E3E3E9B97894FFCFFFCF1A9389D0AE0F6B
:1000C200BF1F1196A0D01E2F83D0AE0FBF1F9BD093
:1000D200E8BB15BB12951F701695169510FD02C050
:1000E200929801C0929A1695103011F4939801C01B
:1000F200939A199108950A921A92FA926A937A93AC
:100102008A939A93AA93BA93EA93FA93EFB7EA93EC
:100112001A931CB1552081F517FF09C010FD06C0C6
:10012200E12FE295E77051D07AD0C7DF24C015FDE8
:1001320013C014FD0DC054D041F4E12FE295EF70CD
:10014200E695E6954E2EE1E001C0E2E05E2E03C0A8
:10015200E12FE7707E2E0FC014FD0BC041D041F499
:100162005D9BFECFE0B3F0E049D0EC73EE5FECB9FB
:1001720002C0E2E05E2E1AC0E1E0E515B1F4E72D1F
:10018200A0E0B0E0F0E0EE0FFF1FAE0FBF1FEE27C2
:10019200A40DBE1FE12F43D0E1E0E41521F415D0F8
:1001A20032D07E1609F001C088DF55241991E991F9
:1001B200EFBFF991E991B991A991999189917991B9
:1001C2006991F990199009901895A0E1B0E008950D
:1001D200FCDF19D0A0E0B0E0F0E0EE0FFF1F0895C1
:1001E200E0B3F0E007D0DF01E12FEF70F0E0EA17B3
:1001F200FB070895F595E795F595E795F595E7954C
:10020200F595E7950895E199FECFFF93FFB7F8942E
:10021200AEBBBFBBE09AEDB3FFBFFF910895E19B78
:1002220002C0A895FCCF9FB7F894AEBBBFBBE09AC3
:100232008DB3E81719F0EDBBE29AE19A9FBF0895DA
:00000001FF
