:020000000C945E
:1000020045060C944D110C9469110C9400000C944B
:1000120000000C9400000C9400000C9400000C945E
:1000220000000C9400000C9400000C9400000C944E
:1000320000000C942A110C9400000C9400000C9403
:1000420000000C9400000C9400000C9400000C942E
:10005200000000000000000000000000000000009E
:10006200000000000000000000000000000000008E
:10007200000000000000000000000000000000007E
:10008200000000000000000000000000000000006E
:10009200000000000000000000000000000000005E
:1000A200000000000000000000000000000000004E
:1000B200000000000000000000000000000000003E
:1000C200000000000000000000000000000000002E
:1000D20000002020282868B060202020282A28300C
:1000E2002020008080443224202000242424382030
:1000F200202020202020242A1100202020242A1120
:10010200202030202020242A1120202030203028B6
:10011200281820242221242A1100242221242A11F1
:10012200202030242221242A1120008080403020E7
:10013200202020202060A060283020202060B06095
:10014200202000302860A06030200004061D2524F5
:100152002020000000000000000000004F0000000E
:100162000000000700070000000000147F147F1445
:10017200000000242A7F2A12000000231308646270
:10018200000000364955224000000000050300002F
:100192000000001C2241000000000041221C00005F
:1001A20000000014083E081400000008083E080879
:1001B20000000000281800000000000808080808D5
:1001C2000800003030000000000000201008040287
:1001D2000000003E5149453E00000000427F4000C1
:1001E20000000042615149460000002141454B3167
:1001F2000000001814127F1000000000274545453A
:100202003900003C4A4949300000000171090503E8
:100212000000003649494936000000064949291EB6
:1002220000000000363600000000000056360000D4
:100232000000000814224100000000242424242489
:1002420000000000412214080000000201510906CA
:10025200000000324979413E0000007E1111117EFA
:100262000000007F494949360000003E41414122D9
:100272000000007F4141221C0000007F49494941A2
:100282000000007F090909010000003E4149493A86
:100292000000007F0808087F00000000417F410045
:1002A2000000002040413F010000007F081422416D
:1002B2000000007F404040400000007F020C027FAF
:1002C2000000007F0408107F0000003E4141413ED3
:1002D2000000007F0909090600003E4151215E002D
:1002E2000000007F091929460000004649494931AA
:1002F20000000001017F01010000003F4040403F3B
:100302000000001F2040201F0000003F4060403FCF
:100312000000006314081463000000070870080757
:1003220000000061514945430000007F4141000047
:1003320000000015167C161500000041417F0000E8
:10034200000000040201020400000040404040405E
:100352000000000102040000000000205454547800
:100362000000007F44444438000000384444440004
:10037200000000384444487F0000003854545418A8
:10038200000000107E1101020000000C5252523E89
:100392000000007F0804047800000000447D400053
:1003A2000000002040403D000000007F1028440073
:1003B20000000000417F40000000007C0418047827
:1003C2000000007C080404780000003844444438EB
:1003D2000000007C14141408000000081414187C97
:1003E2000000007C08040408000000485454542013
:1003F200000000043F4440200000003C4040207CBC
:100402000000001C2040201C0000001E2010201EA6
:100412000000002214081422000000064848483E4A
:100422000000004464544C440000000836410000BF
:1004320000000000007F00000000004136080000BC
:1004420000000008082A1C08000000081C2A0808EE
:100452000000003C4241423C000000302860A060A5
:10046200283020202020A020283020202020B0204A
:10047200202000302820A0203020202020222022EE
:100482002830202020223022202000302822202242
:100492003020202020222122283020202022312218
:1004A200202000302822212230202020282828B095
:1004B2002020202028282830202000C0A82868B02A
:1004C200602000008080443204000024252438206B
:1004D200202030242221242A110000808040342050
:1004E20020202020203820382018202038203820B2
:1004F2003820608080782038201820202038223947
:10050200221820203822392238206080807822392F
:10051200221830202020242A1100203020302828C0
:100522003820608080603028283820203020302811
:100532002A1820302030282A382060808060302815
:100542002A3820203E302828382020203E30282AF1
:100552003820202020203028280020202030282861
:1005620020200040A0B02828202020202020302851
:100572002A0020202030282A20200040A0B0282A4B
:1005820020202020202030282A30202030282A3005
:1005920020200018202030282A3020202020302A35
:1005A20028322020302A28322020608080B2A87A87
:1005B200202022252525252525192020201C222121
:1005C200202030282C2A203F2020202020202020DC
:1005D2001F00202020201F202020003040403F20EC
:1005E2002020202020203048483020203048483029
:1005F2002020804030484830202020202020222007
:100602001800202020201A20202030404440302092
:10061200202020202030283A2C18202030283A2C64
:100622003820001814141820202000212224281019
:100632000F0000B0A87820202020202020A020A099
:100642002830202020A030A0202000608080A050F0
:100652001020001E202020202020002030282820CA
:100662000000000402023A020201000004063D05F5
:100672000400000004B6AD7D0400000080C0BFA0ED
:10068200800004668595A8A848000000003F00008D
:10069200000000302820A02028300000302A283214
:1006A2000000003028222022283000302822212277
:1006B200283000C0A8A828B0202000C0A8A8A830D0
:1006C200202000C0A8AA283020200000242424389A
:1006D2000000000024252438000000808040300003
:1006E2000000000080804034000060808078203864
:1006F200201860808078223922186080806030283B
:1007020028186080806030282A18002214081422D9
:10071200000020203E302828180020203E30282AC1
:100722001800000040A0B0282800000040A0B02A15
:1007320028002020202020202020001820203028DF
:100742002A3000608080B2A87A000030282C2A204B
:100752003F000040A9AAA8F0000000006080807E4F
:1007620000000040AAA9AAF000000000C020302822
:100772002830000060808880600000003028283027
:100782000000000000B0A8780000042625252810EB
:100792000F000422222629100F0000212224A8D0B3
:1007A200AFA00070AAA9AA3000000070AAA8AA30BF
:1007B200000000304040502808000030C040D028DF
:1007C2000800000002790200000000000278020026
:1007D2000000000000000005050500000004030BF6
:1007E2000606A0A0A0000000000000000101010117
:1007F20000000021222428102F2000000000000405
:10080200030300008080808000000000101054105C
:1008120010000000020402040200202426252520E4
:1008220028302024262535202020086C8A8AA050D2
:10083200102004B6AD7D24202020001914151820A4
:1008420020200402021A2222212000406050485037
:100852004040C1C1C1C10000C2C2FEFE0100C3C30B
:100862001F1F0100C4C4FCFC0100C5C5C5C50101B0
:10087200C6BDBFBE0101C7C7C0C00100C882848314
:100882000101C9C9FDFD0100CA8587860101CB8826
:100892008A890101CC8BCC8B0101CD8CCD8C0101DD
:1008A200CE11CE110101CFCF13130100D0D08F8F03
:1008B2000100D1D11B1B0100D2D291910100D39230
:1008C20094930101D49597960101D5179A99010144
:1008D200D69B9D9C0101D7D7D7D70000D8D89E9E22
:1008E2000101D9D99F9F0101DAA0A2A10101DBA3D5
:1008F200A5A40101DCDCDCDC0000DDA6A8A7010167
:10090200DEA9ABAA0101DFACAEAD0101E0E0E0E09F
:100912000000E1AFB1B00101E2E2E2E20000E3B2C5
:10092200B4B30101E4B5B7B60101E5B8BAB9010142
:10093200E6E6BCBC0100E7E7E7E70000E8E8E8E834
:100942000000E9E9E9E90000EAEAEAEA0000EBEB83
:10095200EBEB0000ECBDBFBE0101EDBDBFBE01016E
:10096200EEEEEEEE0000EFEFEFEF0000F0F0F0F051
:100972000000F1F1F1F10000F2F2F2F20000F3F303
:10098200F3F30000F5F5F5F50000F6F6F6F60000D3
:10099200F7F7F7F70000F8F8F8F80000FBF9FBFAB0
:1009A2000101BBBBF4F40100811C1E1D0101901862
:1009B2001A1901019814161501018E8E12120100E6
:1009C2008D108D100101070809FF040506FF0102C1
:1009D20003FFFF00FFFF1027E80364000A00010085
:1009E2000010000110000100FC0000000000C10026
:1009F20000000000000000000000000000000000F5
:100A0200256420002564005B005D00456E746572FC
:100A120020612072616E67653A00202D20005B4FD5
:100A22004B5D002043616E63656C003E0050617453
:100A32007465726E3A202564003E20436F6E7469BD
:100A42006E75650020205361766500202041637435
:100A5200697661746500202043616E63656C0020D5
:100A620020005061747465726E3A00426C6F636B61
:100A72003A005B4D656E755D00456E74657220616E
:100A8200207061747465726E006E756D626572209D
:100A92006265747765656E003120616E642038206E
:100AA2003A2000446562756767696E672C00506C76
:100AB2006561736520776169742E2E2E00416C6C1E
:100AC200206C696768746D6963726F732C00617260
:100AD2006520636F6E6E65637465642E006C696772
:100AE20068746D6963726F732074686174006172F7
:100AF2006520646973636F6E6E6563746564002D4F
:100B0200003E456469740044656275670054656D12
:100B1200702072616E6765005061747465726E3A1E
:100B2200200054656D703A206D6561757372696E4F
:100B320067002020202020202020200001002D4EB0
:100B4200414E00494E46000005000500EA09010039
:100B5200C203F00902006002040A02006202040AEF
:100B620002006402090A020066020B0A0F00680210
:100B72000D0A040077021C0A05007B02200A080005
:100B82008002250A02008802040A02008A022D0A53
:100B920002008C02040A02008E022D0A0B0090024F
:100BA2003B0A07009B02460A0B00A2024D0A0900FB
:100BB200AD02580A0300B602610A0900B902640ACA
:100BC2000700C2026D0A0700C902740A0200D002BD
:100BD200040A0200D202040A0200D402040A020039
:100BE200D602090A0200D8020B0A1000DA027B0AB6
:100BF2000F00EA028B0A0B00F9029A0A05000403AD
:100C0200200A08000903250A0B001103A50A0F0098
:100C12001C03B00A11002B03BF0A0F003C03D00AC9
:100C220011004B03DF0A11005C03F00A02006D039E
:100C3200040A02006F03010B05007103200A02007F
:100C42007603040A020078032D0A02007A03040ADA
:100C520002007C032D0A06007E03030B09008403B5
:100C62004F0A06008D03090B0B0093030F0B0A00BA
:100C72009E031A0B1000A803240B0A00B803340BBE
:100C82000100EC033E0B0000F894EE27ECBBF1E010
:100C9200FBBFEBBFE5BF8DE0A2E0BB27ED938A95DA
:100CA200E9F780E098E0A0E6ED930197E9F7EAE43E
:100CB200FBE085919591009761F0A591B591059022
:100CC2001590BF01F00105900D920197E1F7FB012C
:100CD200F0CFEFE5EDBFE8E0EEBFC0E6D2E00C9466
:100CE2000211A99A88E08A95F1F7A99888E08A9575
:100CF200F1F70895BA93AA931A939798A898A9819D
:100D0200BA81A034E0E0BE0720F4AA9AAB98198118
:100D120005C0AB9AAA98E981E0541E2FE12FE06446
:100D2200EF771E2F1BBBDDDF18813CC0BA93AA935D
:100D32001A939798A898E981E86BEF7B1E2F1BBB4B
:100D4200D0DF18812FC0BA93AA93AA81BB81D2DFC8
:100D5200A881B981EBDF24960895AA93979AA8985F
:100D6200E881EBBB83E08A95F1F7BBDF7EC4AA93EF
:100D72001A930A930E94B813AC81BB27E4DF0E9446
:100D8200BD13AC81BB27DFDFAA9A00E010E001347B
:100D9200E0E01E072CF4A0E0E0DF0F5F1F4FF7CF6B
:100DA20019810881239608951A930A9300E010E0AE
:100DB2000830E0E01E072CF4A02FD9DF0F5F1F4F91
:100DC200F7CF099119910895AA931A9310E0E0E0E0
:100DD200EABBA89A979AA981E0E40E947916E030CA
:100DE20011F4AA9801C0AA9AAA9B02C0AB9801C0AA
:100DF200AB9A83E08A95F1F7A99A83E08A95F1F795
:100E0200A99885E38A95F1F7A99A83E08A95F1F783
:100E120019B3A99883E08A95F1F7EFEFEABBE12FC6
:100E2200188122960895AA931A930E94C213E98107
:100E3200F0E0309761F4EA81E770A1E00E944A167F
:100E4200E095EF93AC81C0DFAF91EA230EC0E130B1
:100E5200A0E0FA0759F4EA81E770A1E00E944A167D
:100E6200EF93AC81B1DFAF91EA2B1E2F0E94C21328
:100E7200A12F73DF188126960895AA931A930A93D5
:100E82000F811885EC81F0E0AF81B885EA0FFB1F76
:100E92000E171F0758F41A930A93EF81F885FA93F5
:100EA200EA93AE81C0DF0E94CD13ECCF1981088195
:100EB20029960895AA931A930A930E811F81EC81B1
:100EC200FD81AE81BF81EA0FFB1F0E171F0748F499
:100ED2000E94D5131A930A93AE81A5DF0E94CD1307
:100EE200EECF198108811EC0AA930E94D5130E94D9
:100EF200D5130E94DA13EC81FD81FA93EA930E94E2
:100F0200DA130E94D5130E94E4130E94EB13EC81C2
:100F1200FD81FA93EA930E94D5130E94E41331965D
:100F22000E94EB132A960895BA93AA931A93AB815F
:100F3200BC81E0DEA981BA81F9DE10E0183040F40C
:100F4200ED81FE810E94F213A49107DF1F5FF6CFAD
:100F5200188125C1AA930E94EE1620E010E0EC81D0
:100F62001E17E0F400E00830B8F40E94FC13E69586
:100F7200EC93ED81E1703E2F303021F00E94FC13A2
:100F8200E068EC932F5FEC81E21721F4ED81E695A6
:100F9200ED8320E00F5FE7CF1F5FE1CF0E94F516E0
:100FA20028960895AA93EF9721970E94EE160E9421
:100FB2000314A0DEDE01AB5BBF4F0D90BC91A02DF0
:100FC200B5DE10E01830B8F40E940A14EA0FFB1FD5
:100FD200FA93EA93FE01E55BFF4F0190F081E02D69
:100FE2000E94F213E491EA93DE01A95BBF4FAC9138
:100FF200B1DF1F5FE7CF00E0FE01EC5BFF4FE08156
:101002000E1708F041C010E0183068F530E0FE011C
:10101200EC5BFF4FE0813E1720F5E32FF0E00E94EA
:101022000314EA0FFB1FBF01DE01AC5BBF4FAC91A3
:10103200BB27E12FF0E00E948616DB01AE0FBF1F37
:10104200A034E0E0BE0729F40E94BD130E940314FD
:101052007ADE0E940A140E941114AC917EDE3F5F78
:10106200D6CF1F5FD1CFFE01E95BFF4F0190F08128
:10107200E02DFA93EA93DE01A95BBF4F0E94171499
:10108200DF0161DE0F5FB8CF0E94F516EF962C9656
:101092000895AA93A981A13009F077C0EE81F0E00A
:1010A200E138A0E0FA0711F4EAEF17C0E039A0E056
:1010B200FA0711F4EBEF11C0E839A0E0FA0711F4D6
:1010C200ECEF0BC0EE38A0E0FA0711F4EDEF05C02B
:1010D200ED38A0E0FA0711F4EEEFEE83AE81A13C09
:1010E200A0F0A091C203B091C303A13CE0E0BE070F
:1010F20064F00E941D143596E491E03031F00E94B4
:101102002A143496E491E03009F418C00E941D14A8
:10111200DF01E091C403F0E03196EA0FFB1FE49196
:10112200F0E0FA93EA93E091C503F0E0FA93EA93D0
:10113200A091C603BB27F8DEE2E001C0E0E0E09345
:10114200C403AE81A13C50F00E942A14DF01E09159
:10115200C403F0E0EA0FFB1FE49101C0EE81F0E06E
:101162000E9435140E943514FA93EA93AE811ADF75
:10117200EE81F0E0E093C203F093C303EC81E093CD
:10118200C503EA81E093C6030AC0EE81F0E00E9443
:1011920035140E943514FA93EA93AE8103DF279641
:1011A2000895AA931A930A9310E000E00E943A1459
:1011B20018F4AC81A03009F027C00E944314EC91CE
:1011C200EA930E94D5130E94D513E0E00E944A14CC
:1011D2000E944E14AF81B885EA0FFB1FEF83F88798
:1011E2000E945914A0E8B0E00E94C816EA1BFB0B4B
:1011F200AF81B885EA17FB072CF4E0E0EF83E887BC
:101202000E945E141F5FD2CF0E943A1418F4AC8180
:10121200A13009F069C00E944314AC91A13E21F4AF
:101222000E946714A73C09F002C009EF23C00E9484
:101232004314AC91A13E21F40E946714A33C09F02F
:1012420002C007EE17C00E944314AC91A13E21F4E4
:101252000E946714A23C09F002C008EE0BC00E9473
:101262004314AC91A13E21F40E946714A53C09F0FD
:1012720001C009EE003079F00A930E946F14E1E098
:101282000E944A141E5F0E945914AF81B8850E94C1
:101292007A1400E018C00E944314EC91EA930E9471
:1012A2006F14E9850E944A140E944314AC91A03243
:1012B20019F40E944E1402C00E945914AF81B885DD
:1012C2000E947A141F5F0E9459143196AF81B8852B
:1012D200AE17BF0744F40E945914A0E8B0E00E9480
:1012E2007A140E945E1490CFE1ECF0E0E093C20326
:1012F200F093C303198108812B960895AA931A9338
:101302000A930AE010E0442011F00DE010E0EA81B7
:10131200F0E0E853F64FA491AF3F09F445C024979B
:10132200E0E0E883D801AC91AA3020F4D801AC9176
:10133200AF3F49F4E1E0E883EE81F0E0E853F64F95
:10134200E491D80112C0F801BF01E081AAE0EA02EB
:10135200F001DB01EC93F8010F01A081EE81F0E0D6
:10136200E853F64FE491EA0FD001EC93E881E030C4
:1013720029F00E947F14E2E0FAE004C00E947F1488
:10138200E6E0FAE0FA93EA93D801EC910E94841421
:101392000E947F14A42DE5E0EA9FF00134960E949A
:1013A2008E140E9493142496CDC40E949E1421F0A0
:1013B200E430A0E0FA0709F5E0E6F2E00E94A514A5
:1013C2000E94AC14E2E6F2E00E94A51439960E9453
:1013D2008E140E94C214E1E0BE26E4E6F2E00E940E
:1013E200A5140E94AC14E6E6F2E00E94A514399618
:1013F2000E948E140E94C2146CC0E230A0E0FA0770
:1014020021F0E330A0E0FA0761F5A42DE5E0EA9FC0
:10141200F001DF0134960E945D1633970E94CE14CC
:10142200FD0136960E945D1633960E94D514E0E0C7
:10143200EA93A0E059DDE1E04E26EDE1F0E00E9402
:10144200CE14E3E3F0E00E94D5144A920E94DC1429
:10145200EBE5F0E00E94D514E1E0E4250E94E214FD
:1014620038C03097B1F5BB2099F5EFEFEA1511F0CE
:10147200ED1509F42CC0DA1428F42197D882DA2C5D
:10148200A8802196AA92AD2DAA93E0E3AE2FAA934B
:101492005D9BFECFE881ECB92196E981AE2FAA933C
:1014A2005D9BFECFE881ECB92196E0E3AE2FAA93D3
:1014B2005D9BFECFE881ECB92196E881AE2FAA931D
:1014C2005D9BFECFE881ECB92196229641D601C000
:1014D2003FD6CBC04424BB24EFEFAE2EDE2E64DC1D
:1014E200E8E6F2E00E94E6140E94B8130E94E914B2
:1014F200E7E7F2E00E94F0140E949314EDE1F0E0BD
:101502000E94CE14E3E3F0E00E94D514E0E0EA93F7
:101512000E94DC14EBE5F0E00E94D514E1E00E94A9
:10152200E214EBE7F2E00E94F0140E94F714E0E804
:10153200F2E00E94FC14EFE7F9E03F01E6EDF9E08A
:101542004F0108950E949E14C1F4E8E8F2E00E945F
:10155200E6140E940715E091E803E03011F4E3E09D
:1015620003C0E091E803E150E093E803EAE8F2E027
:101572000E94E6140E94071578C0E430A0E0FA0742
:1015820099F4ECE8F2E00E94E6140E940715E0915B
:10159200E8030E940E15E093E803EEE8F2E00E94F1
:1015A200E6140E94071561C0309709F05EC0E09111
:1015B200E803F0E0309719F4A0E04FD256C0E130D2
:1015C200A0E0FA0729F0E230A0E0FA0709F048C0EB
:1015D2002297E0E0E983A981A03120F5E0E0E883E9
:1015E200A881A230D8F4E9810E941515AE0FBF1F61
:1015F200E881F0E0EA0FFB1F0F01E9810E9421154B
:10160200AE0FBF1FE881F0E0AE0FBF1FEC91D0011B
:101612000E94DB16E881EF5FE883E2CFE981EF5FAA
:10162200E983D9CFE0E0F0E0FA93EA93A091E703EF
:101632000E94BA11A091E803A23079F40E94271502
:10164200AA93E881E295E07FE068AE2FAA935D9BC2
:10165200FECFE881ECB9219621967AD5229605C073
:10166200E330A0E0FA0709F473D521960895E0E08B
:10167200E093E80366247724E3EAFAE04F0194DB7F
:1016820029970E943015EFE2FAE00E943415FE011C
:101692000E94E6140E94B8130E94E9142996E0E918
:1016A200F2E00E94E6140E944315EBE9F2E00E9488
:1016B200E6140E949314E2EAF2E00E94E6140E9409
:1016C2004815EDEAF2E00E94E614E5E0F0E00E943F
:1016D2004D150895AA93E881E03009F49BC0A0E07B
:1016E200AA931A930A93EC2DF0E0A3E0B0E00E94D3
:1016F200A316A0E1EA02102DAC2DB0E0E4E0F0E088
:101702000E949E16A0E1EA02002DE12FF0E0FA937A
:10171200EA93E02FF0E0FA93EA93EFE0EA93E0E055
:10172200EA93A885AADBE12FF0E0FA93EA93E02F8F
:10173200F0E03E96FA93EA93EFE0EA93E0E0EA9370
:10174200A8859BDBE12FF0E03E96FA93EA93E02F27
:10175200F0E0FA93EA93EFE0F0E0FA93EA93E0E044
:10176200EA93A985A7DBE12FF0E0FA93EA93E02F51
:10177200F0E0FA93EA93EFE0F0E0FA93EA93E0E024
:10178200EA93A98597DBEA81E03009F040C0E12FB6
:10179200F0E0FA93EA93E02FF0E0DF01BA93AA9324
:1017A2001A930A9310E0143078F500E0043050F5F3
:1017B200E4E0E19FF001AC81BD81EA0FFB1F3196AD
:1017C200FA93EA93E4E0E09FF001AC81BD81AE0FB1
:1017D200BF1F1196BA93AA93EA81FB813197FA93BC
:1017E200EA93EA81FB8131970E94351431960E9477
:1017F20035143196FA93EA93E0E00E94E2142496BB
:101802000F5FD4CF1F5FCFCF198108812696198130
:1018120008812396E881F0E0E130A0E0FA0749F47C
:10182200E4E0CE1618F4ECE0CE0E02C0E4E0CE1AEC
:1018320029C0E430A0E0FA0749F4EC2DF0E0349638
:10184200AFE0B0E00E94A316CE2E1CC0E230A0E0B2
:10185200FA0749F4EC2DF0E03196AFE0B0E00E94D7
:10186200A316CE2E0FC0E330A0E0FA0739F4CC2045
:1018720019F4EFE0CE2E01C0CA9404C0309711F4DF
:10188200F6DE64C4A1E0AA931A930A93EC2DF0E069
:10189200A3E0B0E00E94A316A0E1EA02102DAC2D55
:1018A200B0E0E4E0F0E00E949E16A0E1EA02002D22
:1018B200E12FF0E0FA93EA93E02FF0E0FA93EA9353
:1018C200EFE0EA93E0E0EA93A885D7DAE12FF0E0CF
:1018D200FA93EA93E02FF0E03E96FA93EA93EFE070
:1018E200EA93E0E0EA93A885C8DAE12FF0E03E96B9
:1018F200FA93EA93E02FF0E0FA93EA93EFE0F0E054
:10190200FA93EA93E0E0EA93A985D4DAE12FF0E0D2
:10191200FA93EA93E02FF0E0FA93EA93EFE0F0E033
:10192200FA93EA93E0E0EA93A985C4DAEA81E03027
:1019320009F040C0E12FF0E0FA93EA93E02FF0E0E3
:10194200DF01BA93AA931A930A9310E0143078F540
:1019520000E0043050F5E4E0E19FF001AC81BD818C
:10196200EA0FFB1F3196FA93EA93E4E0E09FF0015D
:10197200AC81BD81AE0FBF1F1196BA93AA93EA81C3
:10198200FB813197FA93EA93EA81FB8131970E94B6
:10199200351431960E9435143196FA93EA93E0E0B9
:1019A2000E94E21424960F5FD4CF1F5FCFCF19811C
:1019B200088126961981088123962397E6EBF2E0A7
:1019C200FA93EA930E9450150E9430150E94551511
:1019D2000E9450152396BAC3AA930E94EE160E9443
:1019E2006515EC810E946E15EE0FEE0FE00DEF5FB4
:1019F2001E2F0E947415602DAC810E947D15EE0F82
:101A0200EE0FE60FEF5F0E2FEC2D0E9421150E94C4
:101A12008315E60FF71FBF0110800E948D15E12587
:101A2200DB01EC93EC2D0E9421150E948315DB0152
:101A3200AE0FBF1F1C900E948D15E1213E2F30304A
:101A420021F40E949715A0E003C00E949715A1E01F
:101A5200EAD90E94F51625960895AA931A930A9335
:101A6200A3D910E0143008F048C000E0043008F0B8
:101A720042C0A0E11A9F1A920A920A9FF001DF0166
:101A8200BA93AA931A930A9310E0143078F500E0FF
:101A9200043050F5E4E0E19FF001AC81BD81EA0F32
:101AA200FB1F3196FA93EA93E4E0E09FF001AC81E8
:101AB200BD81AE0FBF1F1196BA93AA93EA81FB8133
:101AC2003197FA93EA93EA81FB8131970E943514A8
:101AD20031960E9435143196FA93EA93E0E00E941F
:101AE200E21424960F5FD4CF1F5FCFCF19810881F4
:101AF20026960F5FBBCF1F5FB5CFEA81E030E9F0DA
:101B020010E01031D0F400E00230A8F4E12F0E947E
:101B12002115AE0FBF1FE02FF0E0EA0FFB1F0F01F0
:101B2200E12F0E9415150E9411140E94CF16D001B8
:101B3200EC930F5FE9CF1F5FE4CF10E0103108F0A4
:101B42004AC000E0003108F044C02397E12F0E9410
:101B52006E15A0E1EA02E02F0E946E15EE0FEE0F65
:101B6200E00DEF5FEA83A12F0E947D15A0E1EA025A
:101B7200602DA02F0E947D15EE0FEE0FE60FEF5F96
:101B8200E983E12F0E942115EA0FFB1FBF01A02F5D
:101B9200B0E0E8E0F0E00E949E16DB01AE0FBF1F4E
:101BA2001C90E02FF0E0A7E0B0E00E94A316A1E0B5
:101BB2000E944A16E121E883E03021F40E94A01538
:101BC200A0E003C00E94A015A1E02DD923960F5FCB
:101BD200B9CF1F5FB3CFEA81E03009F0CC24A1E096
:101BE200AA931A930A930E946515102D0E947415E8
:101BF200002D0E949715EFE0EA93E0E0EA93A885B2
:101C02003CD9E12FF0E0FA93EA93E02FF0E03E9620
:101C1200FA93EA93EFE0EA93E0E0EA93A8852DD9FC
:101C2200E12FF0E03E96FA93EA93E02FF0E0FA9388
:101C3200EA93EFE0F0E0FA93EA93E0E0EA93A98511
:101C420039D90E949715EFE0F0E0FA93EA93E0E0C9
:101C5200EA93A9852FD9EA81E03009F040C0E12F4B
:101C6200F0E0FA93EA93E02FF0E0DF01BA93AA934F
:101C72001A930A9310E0143078F500E0043050F51E
:101C8200E4E0E19FF001AC81BD81EA0FFB1F3196D8
:101C9200FA93EA93E4E0E09FF001AC81BD81AE0FDC
:101CA200BF1F1196BA93AA93EA81FB813197FA93E7
:101CB200EA93EA81FB8131970E94351431960E94A2
:101CC20035143196FA93EA93E0E00E94E2142496E6
:101CD2000F5FD4CF1F5FCFCF19810881269619815C
:101CE200088123962997E9EBF2E0FA93EA930E949E
:101CF200BD130E94B8130E94E9140E943015E6E059
:101D0200FAE00E9434150E943015ECE5F0E00E94E2
:101D1200A915E2ECF2E00E94AE150E9443150E9462
:101D220030150E9455150E945015E9ECF2E00E9410
:101D3200AE150E94B5152996EDEEFCE03F01EBE6EB
:101D4200FBE04F011981088123960895AA93E88147
:101D5200F0E0E853F64FA491AF3F19F0A491A03000
:101D620009F41BC02397E0EDF2E0FA93EA930E9494
:101D7200B815EB81F0E0E853F64F04900092E703C8
:101D82000E9430150E94BD15E091E7030E94841461
:101D92000E9430150E94B8152396D8C10E949E1445
:101DA20021F0E430A0E0FA0729F5E2EDF2E00E942A
:101DB200C2150E94CA15E4EDF2E00E94C2153996DE
:101DC2000E948E140E94D915A091E903E1E0EA274E
:101DD200E093E903E6EDF2E00E94C2150E94CA1503
:101DE200E8EDF2E00E94C21539960E948E140E941C
:101DF200D91528C0309731F5E091E903E03009F5B3
:101E0200A091E703AF3FE1F0E091E703E150E093F7
:101E1200E703E091EA03E03089F40E942715AA93D0
:101E2200E881E295E07FE068AE2FAA935D9BFECF4A
:101E3200E881ECB9219621968BD102C0A1E00DDE9A
:101E420001C086D183C1AA93E0E0E093E903E8816F
:101E5200E093EA03EFEFE093E7030E94D506EAED91
:101E6200F2E00E94E6140E94B8130E94E914EAEE1E
:101E7200F2E00E94E6140E94DE15E9EFF2E00E9411
:101E8200E6140E944315E5E3F0E0FA93EA93EDE1EC
:101E9200F0E0FA93EA93E3E4F0E0FA93EA93EBE2F8
:101EA200F0E0FA93EA93E0E00E94E214E4E0F3E067
:101EB2000E94F0140E94F714E9E0F3E00E94FC147F
:101EC200E7EAFEE03F01EFECFEE04F013FC1AA93DB
:101ED200E881E03009F43CD139C1609780E1A0E0AB
:101EE200B0E0E2EFF9E00E94FA160E94EE1630E04E
:101EF2000E94D506E1E1F3E00E94E6140E94B813C5
:101F02000E94E914ECE1F3E00E94E6140E94DE155F
:101F1200949A10E01031B0F5A12FAA93E881EE0F48
:101F2200EE0FEE0FE168AE2FAA935D9BFECFE88124
:101F3200ECB921962196A12FAA93E881E062AE2FF7
:101F4200AA935D9BFECFE881ECB921962196AFE082
:101F5200B0E00E9438165F9B0AC00CB1E4E0E19F3A
:101F6200F0013296A02FB0E0EA17FB0749F0E12F0B
:101F7200F0E0DE011496AE0FBF1FE1E0EC933F5F8D
:101F82001F5FC8CF94980E94D506303079F4EBE2F7
:101F9200F3E00E94E6140E94B8130E94E914ECE3F5
:101FA200F3E00E94E6140E94DE1572C02297E2E07E
:101FB200E883E0E0E983EBE4F3E00E94E6140E94A8
:101FC200B8130E94E914ECE5F3E00E94E6140E94C3
:101FD200DE1510E0303009F45AC0E12FF0E0DE01E6
:101FE2001696AE0FBF1FAC91A13009F04EC02597D7
:101FF2001A3010F0E2E001C0E1E0E883EE81F0E0A7
:10200200AFE0B0E0AE1BBF0BE881F0E0AE17BF0758
:102012008CF4EDE6F3E0FA93EA93E885F0E0319789
:102022000E948E140E94E115E0E0EE83ED81EF5FE5
:10203200ED830CC0EE81E03049F0EFE6F3E0FA9375
:10204200EA930E94E415EE81EF5FEE830E947F1413
:102052000E94BD15E12F0E94EA150E947F140E9482
:10206200E415AE81BB27E881F0E0AE0FBF1F5097A9
:1020720034F0E0E0EE83ED81EF5FED8304C0E881B0
:10208200AE81EA0FEE83315025961F5FA3CF2296D1
:10209200E1E7F3E00E94F0140E94B515662477246C
:1020A200E8E6FFE04F010E94F5160C9469130E94C6
:1020B2009E14C1F4E6E7F3E00E94E6140E94F515CF
:1020C200E091EB03E03011F4E3E003C0E091EB03B5
:1020D200E150E093EB03E8E7F3E00E94E6140E948C
:1020E200F51534C0E430A0E0FA0799F4EAE7F3E02A
:1020F2000E94E6140E94F515E091EB030E940E1572
:10210200E093EB03ECE7F3E00E94E6140E94F5157E
:102112001DC03097D9F45798E091EB03F0E0309767
:1021220019F4A1E090DE12C0E130A0E0FA0719F440
:10213200A0E089DE0BC0E230A0E0FA0711F4CDDEA8
:1021420005C0E330A0E0FA0709F4C4D92196089546
:102152002297E0E0E093EB03ECEF5E2E0E94D506BF
:10216200EEE7F3E00E94E6140E94B8130E94E9141D
:10217200E4E8F3E00E94F9150E94A915EDE8F3E006
:102182000E94F915FA93EA930E944315E3E9F3E0FA
:102192000E94F915FA93EA930E9493140E94B813CD
:1021A200E8E2F0E0FA93EA93E0E8EA93E0E0EA9307
:1021B200A1E00E943E07EEE9F3E00E94E6140E94CD
:1021C200F7140E9430150E94BD15A0E0B1E00E94F4
:1021D200CF160E94EA150E943015E8E4F0E0FA9367
:1021E200EA930E94F714E8EAF3E00E94E6140E94E0
:1021F200B515579A66247724E8E5F0E14F01229657
:102202000895A0E0B1E00E94CF16EF3F29F4A0E0CC
:10221200B1E0E0E00E94DB16EFEFEABBE0EFE7BBE4
:10222200EFE0E8BBE4BBE5B3E06FE5BBE2E9E1BBAD
:10223200E2B3ED64E2BBE8E1EAB9E6E8E0BDE3E37C
:10224200E9B9EAE0E5BFE0ECEBBF82DF7894FFCFCB
:10225200FFCF0E94FE1522971A931CB1511619F452
:102262001881239678C0512E0E947F140E94BD15BA
:10227200E12F0E948414E8EBF3E00E94F0140E9424
:10228200B5150E947F14E0E3F0E0FA93EA930E940E
:10229200B515188123965FC00E94FE151A9310E0AF
:1022A200082C092811F4199156C09F9902C011E017
:1022B2000AC09D9902C012E006C09C9902C013E0B8
:1022C20002C09E9B14E0A12FF4010995199143C00D
:1022D2000E94FE150E94EE16062C0728C9F1E6B3ED
:1022E200E06F1E2F30E0E32FA1E0B0E00E94521613
:1022F200A12FB0E0EA23FB23309711F03F5FF3CF29
:10230200E0E0E7BBE8BBEFE0E7BBE0EFE8BBE6B34A
:10231200F0E00E9464160E2F20E0E22FA1E0B0E070
:102322000E945216A02FB0E0EA23FB23309711F04F
:102332002F5FF3CFE0E0E7BBE8BBE0EFE7BBEFE006
:10234200E8BBE32FEE0FEE0FE20FAE2FF30109957C
:102352000E94F5162496E991EFBFF991E991B9919E
:10236200A9919991899179916991F990199009901E
:102372001895AA931A930A93AA81AA93E881E06115
:10238200AE2FAA935D9BFECFE881ECB921962196F0
:1023920010E0103180F500E0023058F50A93A12FC9
:1023A200AA93E981E295E07FEE0FEE0FA881EA0F92
:1023B200AE2FAA935D9BFECFE881ECB921962296BF
:1023C200E12FF0E0AB81BC810E945B16AE0FBF1F14
:1023D200EA81F0E0EE0FFF1F0E9411140E94CF1657
:1023E200AE2FAA935D9BFECFE881ECB921960F5FD9
:1023F200D3CF1F5FCECF36C0BA93AA931A930A9354
:10240200AA81BB8112960E94BB16309729F1AA813C
:10241200BB8114960E94BB168F01309761F0023087
:10242200E0E01E0780F0F80131978F01AA81BB819D
:102432001496ED93FC93AA81BB8112960E94171405
:102442003197AC81A083AA81BB810E94BB16FF2376
:1024520012F00E94171406C0AA81BB81EFEFFFEFB2
:10246200ED93FC931981088125960895BA93AA9356
:1024720026970E94EC1610E0AC85BD85E0E0F0E006
:10248200ED93FC93EA89FB893196EA8BFB8B3197BA
:10249200E4912E2FE03009F415C1E12FE03039F438
:1024A200253211F411E002C00E940C160AC1E1307B
:1024B200A9F4253219F40E940C1602C112E040E080
:1024C20000E02D3211F401E0FCC02B3211F44BE29A
:1024D200F8C0203211F440E2F4C002C0E23039F414
:1024E20050E013E0203311F40068EBC003C0E33086
:1024F20009F0E7C0203310F02A3308F007C0AAE041
:102502005A9F502DE22FE0535E0FDBC0E22FE336DD
:1025120049F40E941316E889F989A481AA930E94BA
:102522001916CEC0E33741F40E9413160E941F16FB
:102532000E949F131E2F0AC0E03761F40E941316F7
:102542000E941F160E94AB131E2F086002600F77B5
:1025520030E034C0E43611F0E93611F4046002C010
:10256200E53731F4E8EDF9E0EE83FF8315E00CC0C6
:10257200E83511F4086003C0E83709F0A1C0E2EEC3
:10258200F9E0EE83FF8314E002FF14C00E941316E9
:102592000E942916AB85AA233AF4EA85FB850E949C
:1025A2004616EA87FB874DE2403011F01F5F01C0FB
:1025B2000B7F04C00E9413160E94291600FD11C051
:1025C200151778F407FF08C002FF04C00B7F242F01
:1025D200115001C020E301C020E20E940C165150AC
:1025E200EFCF312F01FF17C03030A1F003FF06C03B
:1025F200EE81FF812591EE83FF8305C0AE81BF810D
:102602002D91AE83BF830E940C16503009F05150B9
:102612003150EACF4BC020E3EE81FF810E94BF160A
:10262200E887F987EE81FF813296EE83FF83E885A2
:10263200F985AA85BB85AE17BF0750F02F5FA88525
:10264200B985EA85FB85EA1BFB0BEA87FB87EFCF9F
:102652002A3328F003FF02C0295F01C0295D04FD6F
:102662001AC0213320F4A885B985119709F409C04D
:10267200531710F000FF01C013C020E207FF0BC088
:1026820020E3006102FF07C00B7F4A930E941916E4
:10269200503009F051500E940C16503009F0515040
:1026A2003150A885B985129708F0B5CF00FF08C050
:1026B200503031F05150E0E2EA930E941916F8CFFF
:1026C20010E0E0CEAC85BD850E94BB160E94F316D9
:1026D20064960895FF92F82E26970E94EE160E94A5
:1026E2003116309719F4EFEFFFEF23C0DE01169693
:1026F2000E9442168D010E943116EE83FF83E0E0B4
:10270200E887E987DE011A960E9442160E94BB16EC
:10271200FA93EA931A930A93EDEFF1E1FA93EA93AB
:10272200DE011A96A3DE9F01AE81BF81E0E0EC9349
:10273200F9010E94F5162A96FF900895BA93AA937A
:10274200A991B991EE27FF276D91662311F0319679
:10275200FBCF0895BA93AA93AA27BB27E991F991CF
:102762000590002011F01196FBCFFD010895E0E0E5
:10277200F0E0FA93EA930895E0E4F0E0FA93EA9342
:102782000895EC81FD81FA93EA93EC81FD810E9428
:102792006D16DF010C94A406EB81F0E03196F0E0B7
:1027A200F0E00E0F1F1F0895E885F985FA93EA936A
:1027B2000895AC85E885EA1BEA93EE81EA93AE813F
:1027C2000E943E07F1CFAA85BB85EE81FF81EA1BFD
:1027D200FB0B0895FA93EA93EF81EA93AF810C948D
:1027E2005B070E945D16DF01E12FF0E0EA0FFB1F9D
:1027F200EC5AFF4F0895AE81BF81EE27A10FBE1F95
:10280200EC910895DE01A95BBF4F0D90BC91A02D04
:102812000895E12FF0E00E945D16DE0114960895FE
:10282200AE0FBF1FEE27A00FBE1F0895ED91FD91C1
:102832003196FE93EE930895E091C203F091C303A3
:10284200E15CF040A6E0B0E00E947E16EC5AF74F41
:102852000895EE81F0E0E15CF040A6E0B0E00E9475
:102862007E16EC5AF74F0895FA93EA93EE81FF81B0
:102872000895A985BA850E949F13A12FB0E0AE17D3
:10288200BF070895E12FF0E0A985BA85AE0FBF1FFB
:102892000895EA93A9850C944A08EA81F0E0E7FDDD
:1028A200FFEF3896DF01EB81F0E00E948616089573
:1028B200EB81A8E0EA9FF0010895EB81F0E0AD81A1
:1028C200BE81EA0FFB1FED83FE830895E12FF0E046
:1028D200A985BA85EA0FFB1FA1810895EC81A8E0C2
:1028E200EA9FF001A885B985AE1BBF0BBA93AA93E4
:1028F2005BCFAE1BBF0BAF83B8870895FE01319645
:10290200FA93EA930895FF27662777270E94C31652
:1029120084E00E946B13289608950E945D16FA9334
:10292200EA930895E3E0F0E0FA93EA93E0E0EA93B1
:10293200E1E0EA93A0E00C94D208AA93E881F0E0E7
:10294200E130A0E0FA070895FA93EA93AB2DE2E0B2
:10295200EA9FF0010895A6E0B0E0AE1BBF0BE8E0ED
:10296200F0E00E948616FA93EA93EB2DF0E0369699
:10297200FA93EA93E0E0EA93E1E0EA93A0E00C94B0
:10298200D208EB2DF0E03696FA93EA93E0E0EA9370
:10299200E1E0EA93A0E00C94D208FA93EA93E5E12D
:1029A200F0E0FA93EA930895FA93EA93E3E2F0E00F
:1029B200FA93EA930895A1E00E947507E5E4F0E036
:1029C200ECCFEA93A1E00C947507FA93EA93CFCE89
:1029D200E0E0EA93E1E0EA93A0E00C94D208FA93F3
:1029E200EA93E0E3F0E0FA93EA930895E6E0F0E098
:1029F200FA93EA93EDCFFA93EA93E0E2F0E0FA93E6
:102A0200EA93E7E0F0E0FA93EA93E2CFE091E80399
:102A1200F0E03296FA93EA93DBCFF0E03196A3E04E
:102A2200B0E00E94A3160895F0E00E945B16E05009
:102A3200F040DF01E091E703F0E0EE0FFF1F0895A1
:102A4200A7ECB3E0F0E0EE0FFF1F0895E091E7037B
:102A5200A0E0B1E00E94DB16A091E7030895FE0119
:102A6200FA93EA930895FA93EA93E091E703F0E088
:102A720031960E9474160E94C31684E00E946B1362
:102A820028960895E2E0F0E0FA93EA93A1CFE4E019
:102A9200F0E0FA93EA939CCFFA93EA9399CFE8E5B0
:102AA200F0E0FA93EA933ECFE6E0FAE0FA93EA9393
:102AB200EC2DF0E031960E9474160E94C31684E059
:102AC2000E946B132896CBCFEC2DF0E0A3E0B0E090
:102AD2000E94A316A0E1EA020895F0E0A3E0B0E0AC
:102AE2000E94A3160895AC2DB0E0E4E0F0E00E944D
:102AF2009E16A0E1EA020895B0E0E4E0F0E00E9450
:102B02009E160895EA0FFB1FBF01AC81B0E0E8E01A
:102B1200F0E00E949E160895EC81F0E0A7E0B0E09C
:102B22000E94A316A1E00E944A160895E12FF0E048
:102B3200FA93EA93E02FF0E0FA93EA930895EA8198
:102B4200F0E0FA93EA93EB81F0E0FA93EA930895C6
:102B5200FA93EA93E1E0F0E09FCFFA93EA93E8E494
:102B6200F0E0FA93EA930895E7E0F0E095CFE8E326
:102B7200F0E0FA93EA938BCFE6E0FAE0FA93EA9375
:102B82000895FA93EA93A091E903E2E0EA9FF00143
:102B92000895A6E0B0E0AE1BBF0BE8E0F0E00E94B3
:102BA2008616FA93EA93E091E903F0E0369674CF41
:102BB200E091E903F0E036966FCFE1E0F0E06CCF10
:102BC200E985F0E069CFA885E8E0EA9F1A920A92C7
:102BD200F7CFF0E031960E9474160E94C31684E08B
:102BE2000E946B1328960895E091EB03F0E054CF16
:102BF200FA93EA93E8E0F0E008950A921A92FA92C0
:102C02006A937A938A939A93AA93BA93EA93FA93DA
:102C1200EFB7EA9308952A93AD85BE85EF85F889CB
:102C220009950895E889F9893497E88BF98B089515
:102C3200AD85BE85EF85F88909950895A889B9897A
:102C420014960E94BB16EE83FF83AE81BF81089566
:102C5200A889B98914960E94BB16EA87FB87089552
:102C6200DE011C960E9442160E94BB160895109621
:102C720039F080ED97E00197F1F7A8951197C9F720
:102C820008950024AF0DB01D0895F195E195F0402F
:102C92000895EE230E2EEA2F19F0EE0F0A94E9F7AB
:102CA2000895EE230E2EFD0121F0EE0FFF1F0A9470
:102CB200E1F70895EE0FFF1FEE0FFF1FEE0FFF1F4C
:102CC200EE0FFF1F0895F595E795F595E795F595B4
:102CD200E795F595E7950895F695E795F695E795C5
:102CE200F695E79508956F2F660F660B762F089578
:102CF200AE17E1E008F0EE270895FA9FF02DEB9F62
:102D0200F00DEA9FE02DF10D089526D0F6DF0EF4C6
:102D1200BCDF08950024112490E1AA0FBB1F001C00
:102D2200111C0E1A1F0A18F40E0E1F1E01C0A160FC
:102D32009A9599F7FD01D00108950ED0EBDF0EF4BC
:102D4200A4DF0895E894F7FF02C09FDF6894EA23A6
:102D5200FB230EF49ADF0895E894F7FF02C095DF93
:102D62006894B7FF06C0A095B095119600F8039439
:102D720000FA0895ED91FC91119708950590F49150
:102D8200E02D08957A936A93FA93EA9308951B2E9D
:102D9200BF2FF12D1A2EAE2FE12D0895E199FECF0E
:102DA200FF93FFB7F894AEBBBFBBE09AEDB3FFBF92
:102DB200FF910895E19B02C0A895FCCF9FB7F894BC
:102DC200AEBBBFBBE09A8DB3E81719F0EDBBE29A38
:102DD200E19A9FBF08955A934A933A932A931A937A
:102DE2000A9308955D814C813B812A811981088172
:102DF2000895AC0FBD1F05900D928A95E1F70895D5
:00000001FF
