:0A00000037C0FECFFDCFFCCFFBCFD1
:10000A00FACFF9CFF8CFE6C0F6CFF5CFACC0F3CF31
:10001A00F2CFF1CFF0CFEFCFEECFEDCF1027E8033D
:10002A0064000A0001000010000110000100000035
:10003A0054656D70657261747572653A200A526111
:10004A006E67653A20002532642000253264202D2F
:10005A0020253264000080C001000600380002003A
:10006A00600160000000F894EE27ECBBF1E0FBBFF2
:10007A00EBBFE5BF8DE0A2E0BB27ED938A95E9F7D8
:10008A0080E094E0A0E6ED930197E9F7E2E6F0E07C
:10009A0085919591009761F0A591B591059015907C
:1000AA00BF01F00105900D920197E1F7FB01F0CF36
:1000BA00EFE5EDBFE4E0EEBFC0E6D1E000C0D0D28C
:1000CA004CD3EF3F39F4CCD2EBE153D3A1E0B0E00B
:1000DA00EEE14FD3C5D241D35E2EA1E0B0E03DD3CD
:1000EA004E2EE3EFE7BBEAE1E1BBE4B3EE63E4BB28
:1000FA00E7E8E6B9E0EEE7B9B6D2E0E0EFBDE4E062
:10010A00EEBDE9BFE8E9EAB9E6E8E0BDE3E3E9B94B
:10011A007894A0E1F3D0AAE3B0E0DED0662009F13A
:10012A002997A6D2E0E5F0E0A7D2E72DA8D284E08D
:10013A0056D22896EDE0EA93A0E0A6D299D2E5E558
:10014A00F0E09AD2E52D9BD2E42D99D288E047D2ED
:10015A002C96E7E0EA93A1E097D2F8946A9478940F
:10016A002996DCCFFFCF8A939A93AA93BA93EA93FC
:10017A00EFB7EA931A931CB1E12FE07FE033A9F4B9
:10018A0021975F9BFECF5CB05F9BFECFECB1E8830B
:10019A005F9BFECF4CB0E52D63D2EBD2E42DA1E0FC
:1001AA00B0E0E7D2639421960CC0E12FE178E13800
:1001BA0041F41877110FE8B3EF70E8BBE8B3E12B0D
:1001CA00E8BB1991E991EFBFE991B991A991999188
:1001DA0089911895EA93FA93EFB7EA93369A349B82
:1001EA00FECF75B05D9BFECF7CB8751410F4C09A33
:1001FA0001C0C098471410F4C19A01C0C198639411
:10020A0032D2E991EFBFF991E9911895AA93E88161
:10021A00E07111F0AC9A01C0AC98E881E07211F07B
:10022A00AB9A01C0AB98E881E07411F0AA9A01C0B8
:10023A00AA98E881E07811F0A99A01C0A99827D272
:10024A00AD9A25D2AD9823D282C0AA93A881DEDFC7
:10025A00E881E295E883A881D9DF85E88A95F1F7F4
:10026A0076C0AA93E881F0E0E05AFE4FE081A981C6
:10027A00AE0FEBDF9980888022960895A2E00BD218
:10028A00ACE0E3DFA1E007D2E0E08E2E9E2E0895D7
:10029A00AA93A881AA3011F09B1448F0E0E0EA93EF
:1002AA008394A82DDEDFA881AA3009F450C0939464
:1002BA00939AA881CADF93984AC0BA93AA931A93C9
:1002CA00A981BA81ED91A983BA831E2FE03019F072
:1002DA00A12FDEDFF5CF0FC0E2D11A93E981FA81AF
:1002EA003196E983FA833197E4911E2FE03019F0B1
:1002FA00A12FCEDFF3CF188123960895AA93A49A4B
:10030A00A39AA29AA19AA59A8B9A8C9AAD98939835
:10031A009498B880E881E058E0936201E881E0545B
:10032A00E0936301A4E1B0E0F9D1BCD1BBD1BAD169
:10033A00A0E26CDF88EC90E00197F1F7A8E285DF94
:10034A00A4E083DFA5E881DFA6E07FDF97DF2196BF
:10035A000895A5D123D2ADD11296F2D13097F1F0FA
:10036A00A8D1AAD18F01309761F00230E0E01E07D0
:10037A0070F0F80131978F01AA81BB811496ED9331
:10038A00FC9397D112969BD13197AC81A08391D1DE
:10039A00D7D1FF2312F08DD192D105C08AD1EFEFC8
:1003AA00FFEFED93FC9301D22596089578D1269715
:1003BA00F1D110E0AC85BD85E0E0F0E0ED93FC936F
:1003CA00EA89FB893196EA8BFB8B3197E4912E2FD0
:1003DA00E03009F4FEC0E12FE03031F4253211F4A7
:1003EA0011E001C072D1F4C0E130A1F4253211F458
:1003FA006CD1EDC012E040E000E02D3211F401E0D2
:10040A00E7C02B3211F44BE2E3C0203211F440E290
:10041A00DFC002C0E23039F450E013E0203311F4B7
:10042A000068D6C003C0E33009F0D2C0203310F010
:10043A002A3308F007C0AAE05A9F502DE22FE05352
:10044A005E0FC6C0E22FE33639F446D148D144D113
:10045A00A481AA9348D1BBC0E33731F44AD14BD126
:10046A004DD1E7D01E2F08C0E03751F442D143D115
:10047A0045D1EAD01E2F086002600F7730E02EC007
:10048A00E43611F0E93611F4046002C0E53729F4C4
:10049A00E6E2F0E038D115E00BC0E83511F4086067
:1004AA0003C0E83709F093C0E0E3F0E02CD114E090
:1004BA0002FF11C01ED11FD129D1AB85AA232AF46C
:1004CA00EA85FB8539D122D14DE2403011F01F5F18
:1004DA0001C00B7F03C00DD10ED118D100FD10C091
:1004EA00151770F407FF08C002FF04C00B7F242F02
:1004FA00115001C020E301C020E2E7D05150F0CFF3
:10050A00312F01FF15C0303091F003FF05C0EE8195
:10051A00FF812591F8D005C0AE81BF812D91AE83B0
:10052A00BF83D3D0503009F051503150ECCF46C080
:10053A0020E3EE81FF8108D1E887F987EE81FF8108
:10054A003296E1D0E885F985AA85BB85AE17BF0743
:10055A0048F02F5FA885B985EA85FB85EA1BFB0B66
:10056A00D5D0F0CF2A3328F003FF02C0295F01C09B
:10057A00295D04FD19C0213320F4A885B985119796
:10058A0009F409C0531710F000FF01C011C020E29E
:10059A0007FF0AC020E3006102FF06C00B7F4A93EF
:1005AA00A2D0503009F0515090D0503009F051503B
:1005BA003150A885B985129708F0BACF00FF07C055
:1005CA00503029F05150E0E2EA938DD0F9CF10E093
:1005DA00F7CEAC85BD85B4D0E4D064960895FF9279
:1005EA00F82E2697D9D095D0309719F4EFEFFFEF70
:1005FA001CC0DE0116969CD08D018BD084D0E0E021
:10060A00E887E987DE011A9693D09AD035D01A93F3
:10061A000A93EEEAF1E030D0DE011A96C7DE9F01B6
:10062A00AE81BF81E0E0EC93F901BDD02A96FF903C
:10063A00089535D0A991B991EE27FF276D916623C8
:10064A0011F03196FBCF08952AD0AA27BB27E9914A
:10065A00F9910590002011F01196FBCFFD01089544
:10066A00A0E0B0E00895E8E7FCEEFDBDECBD08951A
:10067A00FE01FA93EA930895FA93EA930895FF27FD
:10068A006627772765D00895ECDDDE0116CE8DE06A
:10069A008A95F1F70895D9DDA3E0B0E03FC0BA9397
:1006AA00AA930895A0E3B2DD88EC90E00197F1F7F0
:1006BA000895AA81BB810895149642D00895ED91B8
:1006CA00FD913196FE93EE9308952A93AD85BE85EA
:1006DA00EF85F88909950895E889F9890895349785
:1006EA00E88BF98B0895AD85BE85EF85F889099564
:1006FA000895F2DFF4CFA889B989DECFEE83FF83AC
:10070A00AE81BF810895EE83FF830895EA87FB8750
:10071A000895DE011C960CD013D00895109639F076
:10072A0080ED97E00197F1F7A8951197C9F7089519
:10073A000024AF0DB01D0895F195E195F04008959C
:10074A00ED91FC91119708950590F491E02D08958B
:10075A007A936A93FA93EA930895E199FECFFF9305
:10076A00FFB7F894AEBBBFBBE09AEDB3FFBFFF91F2
:10077A000895E19B02C0A895FCCF9FB7F894AEBB41
:10078A00BFBBE09A8DB3E81719F0EDBBE29AE19A84
:10079A009FBF08955A934A933A932A931A930A93B6
:1007AA0008955D814C813B812A81198108810895D0
:00000001FF
